{
  "contractName": "AuctionBid",
  "abi": [
    {
      "constant": true,
      "inputs": [],
      "name": "highestPrice",
      "outputs": [
        {
          "name": "",
          "type": "uint256"
        }
      ],
      "payable": false,
      "stateMutability": "view",
      "type": "function"
    },
    {
      "constant": true,
      "inputs": [
        {
          "name": "",
          "type": "uint256"
        }
      ],
      "name": "bids",
      "outputs": [
        {
          "name": "bidder",
          "type": "address"
        },
        {
          "name": "value",
          "type": "uint256"
        },
        {
          "name": "time",
          "type": "uint256"
        }
      ],
      "payable": false,
      "stateMutability": "view",
      "type": "function"
    },
    {
      "constant": true,
      "inputs": [],
      "name": "owner",
      "outputs": [
        {
          "name": "",
          "type": "address"
        }
      ],
      "payable": false,
      "stateMutability": "view",
      "type": "function"
    },
    {
      "constant": true,
      "inputs": [],
      "name": "highestBidder",
      "outputs": [
        {
          "name": "",
          "type": "address"
        }
      ],
      "payable": false,
      "stateMutability": "view",
      "type": "function"
    },
    {
      "constant": true,
      "inputs": [],
      "name": "nextStep",
      "outputs": [
        {
          "name": "",
          "type": "uint256"
        }
      ],
      "payable": false,
      "stateMutability": "view",
      "type": "function"
    },
    {
      "inputs": [],
      "payable": false,
      "stateMutability": "nonpayable",
      "type": "constructor"
    },
    {
      "anonymous": false,
      "inputs": [
        {
          "indexed": false,
          "name": "player",
          "type": "address"
        },
        {
          "indexed": false,
          "name": "value",
          "type": "uint256"
        }
      ],
      "name": "HighestBidIncrease",
      "type": "event"
    },
    {
      "anonymous": false,
      "inputs": [
        {
          "indexed": false,
          "name": "winner",
          "type": "address"
        },
        {
          "indexed": false,
          "name": "value",
          "type": "uint256"
        }
      ],
      "name": "AuctionEnded",
      "type": "event"
    },
    {
      "constant": false,
      "inputs": [
        {
          "name": "_startPrice",
          "type": "uint256"
        }
      ],
      "name": "startBidding",
      "outputs": [],
      "payable": false,
      "stateMutability": "nonpayable",
      "type": "function"
    },
    {
      "constant": false,
      "inputs": [
        {
          "name": "_time",
          "type": "uint256"
        }
      ],
      "name": "bid",
      "outputs": [],
      "payable": true,
      "stateMutability": "payable",
      "type": "function"
    },
    {
      "constant": false,
      "inputs": [],
      "name": "auctionEnd",
      "outputs": [],
      "payable": false,
      "stateMutability": "nonpayable",
      "type": "function"
    },
    {
      "constant": false,
      "inputs": [],
      "name": "withdraw",
      "outputs": [],
      "payable": false,
      "stateMutability": "nonpayable",
      "type": "function"
    },
    {
      "constant": true,
      "inputs": [],
      "name": "getBidLength",
      "outputs": [
        {
          "name": "",
          "type": "uint256"
        }
      ],
      "payable": false,
      "stateMutability": "view",
      "type": "function"
    }
  ],
  "bytecode": "0x608060405234801561001057600080fd5b5060008054600160a060020a03191673d66faa1da31df7939597fe07ab6e9e8a57f096e8179055610880806100466000396000f3006080604052600436106100a35763ffffffff7c01000000000000000000000000000000000000000000000000000000006000350416630e8670e081146100a85780632a24f46c146100cf5780632bc76090146100e65780633ccfd60b146100fb5780634423c5f114610110578063454a2ab3146101505780638da5cb5b1461015b57806391f901571461018c578063a09e9c1d146101a1578063c9000726146101b9575b600080fd5b3480156100b457600080fd5b506100bd6101ce565b60408051918252519081900360200190f35b3480156100db57600080fd5b506100e46101d4565b005b3480156100f257600080fd5b506100bd610323565b34801561010757600080fd5b506100e4610329565b34801561011c57600080fd5b5061012860043561040c565b60408051600160a060020a039094168452602084019290925282820152519081900360600190f35b6100e4600435610447565b34801561016757600080fd5b5061017061072e565b60408051600160a060020a039092168252519081900360200190f35b34801561019857600080fd5b50610170610743565b3480156101ad57600080fd5b506100e4600435610752565b3480156101c557600080fd5b506100bd61084e565b60025481565b60035460009060ff1615610232576040805160e560020a62461bcd02815260206004820152601560248201527f41756374696f6e206e6f742079657420656e6465640000000000000000000000604482015290519081900360640190fd5b60038054600160ff19909116811761ff0019169091555460025460408051600160a060020a039093168352602083019190915280517fdaec4582d5d9595688c8c98545fdd1c696d41c6aeaeb636737e84ed2f5c00eda9281900390910190a150600280546064600a8202049081900390915560008054604051600160a060020a03909116916108fc841502918491818181858888f193505050501580156102dd573d6000803e3d6000fd5b5060035460025460405162010000909204600160a060020a0316916108fc82150291906000818181858888f1935050505015801561031f573d6000803e3d6000fd5b5050565b60065490565b600154600090600160a060020a03163314156103b5576040805160e560020a62461bcd02815260206004820152602a60248201527f43616e206f6e6c79207769746864726177206d6f6e6579207768656e2061756360448201527f74696f6e20656e64656400000000000000000000000000000000000000000000606482015290519081900360840190fd5b50336000908152600560205260408120549081111561040957336000818152600560205260408082208290555183156108fc0291849190818181858888f1935050505015801561031f573d6000803e3d6000fd5b50565b600680548290811061041a57fe5b6000918252602090912060039091020180546001820154600290920154600160a060020a03909116925083565b60035460ff16156104a2576040805160e560020a62461bcd02815260206004820152600d60248201527f41756374696f6e20656e64656400000000000000000000000000000000000000604482015290519081900360640190fd5b60035460ff610100909104161515600114610507576040805160e560020a62461bcd02815260206004820152601160248201527f41756374696f6e20697320636c6f736564000000000000000000000000000000604482015290519081900360640190fd5b6000333111610560576040805160e560020a62461bcd02815260206004820152601f60248201527f596f752068617665206e6f206d6f6e65792c206c65742062757920736f6d6500604482015290519081900360640190fd5b6004543410156105ba576040805160e560020a62461bcd02815260206004820152601e60248201527f43616e27742062696420756e64657220746865206e6578742070726963650000604482015290519081900360640190fd5b604080516060810182523381523460208201908152918101838152600680546001808201835560009290925292517ff652222313e28459528d920b65115c16c04f3efc82aaedc97be59f3f377c0d3f6003909402938401805473ffffffffffffffffffffffffffffffffffffffff1916600160a060020a0392831617905593517ff652222313e28459528d920b65115c16c04f3efc82aaedc97be59f3f377c0d4084015590517ff652222313e28459528d920b65115c16c04f3efc82aaedc97be59f3f377c0d41909201919091555416156106b457600254600154600160a060020a03166000908152600560205260409020805490910190555b6001805473ffffffffffffffffffffffffffffffffffffffff19163390811790915534600281905560408051928352602083019190915280517fdfea07ab8527bd08519bfa633240757a7bb0a7f3c7adc98e30604ba73c70f4299281900390910190a16002546064906032025b6002549190040160045550565b600354620100009004600160a060020a031681565b600154600160a060020a031681565b600354610100900460ff16156107b2576040805160e560020a62461bcd02815260206004820152600f60248201527f41756374696f6e20737461727465640000000000000000000000000000000000604482015290519081900360640190fd5b60035460ff161561080d576040805160e560020a62461bcd02815260206004820152600d60248201527f41756374696f6e20656e64656400000000000000000000000000000000000000604482015290519081900360640190fd5b6003805461010075ffffffffffffffffffffffffffffffffffffffff0000199091163362010000021761ff0019161790556002819055606460328202610721565b600454815600a165627a7a72305820460b082204f3efba5da70ad1664f3d628cec322d03c8697a7f02dfd4da35ffde0029",
  "source": "pragma solidity ^0.4.2;\r\n\r\ncontract AuctionBid {\r\n    address admin;\r\n\r\n    address public highestBidder;\r\n    uint public highestPrice;\r\n    bool ended;\r\n    bool started;\r\n    address public owner;\r\n    uint public nextStep;\r\n    mapping(address => uint) withdrawMoney;\r\n    struct Bid {\r\n        address bidder;\r\n        uint value;\r\n        uint time;\r\n    }\r\n    Bid[] public bids;\r\n    \r\n    event HighestBidIncrease(address player, uint value);\r\n    event AuctionEnded(address winner, uint value);\r\n    \r\n    constructor() public {\r\n        admin = 0xD66fAa1DA31Df7939597fe07AB6E9E8A57F096E8;\r\n    }\r\n    function startBidding(uint _startPrice) public {\r\n        require(started == false, \"Auction started\");\r\n        require(ended == false, \"Auction ended\");\r\n        owner = msg.sender;\r\n        started = true;\r\n        highestPrice = _startPrice;\r\n        nextStep = highestPrice + (highestPrice*50)/100;\r\n    }\r\n    \r\n    function bid(uint _time) public payable {\r\n        require(ended == false, \"Auction ended\");\r\n        require(started == true, \"Auction is closed\");\r\n        require(msg.sender.balance > 0, \"You have no money, let buy some\");\r\n        // nextStep = highestPrice + (highestPrice*50)/100;\r\n        require(msg.value >= nextStep, \"Can't bid under the next price\");\r\n        bids.push(Bid(msg.sender, msg.value, _time));\r\n        if(highestBidder != 0x0000000000000000000000000000000000000000) {\r\n            withdrawMoney[highestBidder] += highestPrice;\r\n        }\r\n        highestBidder = msg.sender;\r\n        highestPrice = msg.value;\r\n        emit HighestBidIncrease(msg.sender, msg.value);\r\n        nextStep = highestPrice + (highestPrice*50)/100;\r\n    }\r\n\r\n    function auctionEnd() public {\r\n        // require(msg.sender == admin, \"Only the admin can do this\");\r\n        require(ended == false, \"Auction not yet ended\");\r\n        ended = true;\r\n        started = false;\r\n        emit AuctionEnded (highestBidder, highestPrice);\r\n        uint fees = (highestPrice * 10)/100;\r\n        highestPrice -= fees;\r\n       \r\n        admin.transfer(fees);\r\n        owner.transfer(highestPrice);\r\n    }\r\n    function withdraw() public  {\r\n        require(msg.sender != highestBidder, \"Can only withdraw money when auction ended\");\r\n        \r\n        uint amount = withdrawMoney[msg.sender];\r\n        if(amount > 0 ) {\r\n            withdrawMoney[msg.sender] = 0;\r\n            msg.sender.transfer(amount);\r\n        }\r\n    }\r\n    function getBidLength () public view returns(uint) {\r\n        return bids.length;\r\n    }\r\n}",
  "sourcePath": "E:\\CNTT\\Fetch-Company\\Workdir\\SmartContract\\auction\\contracts\\AuctionBid.sol",
  "compiler": {
    "name": "solc",
    "version": "0.4.24+commit.e67f0147.Emscripten.clang"
  },
  "schemaVersion": "2.0.1",
  "updatedAt": "2018-08-17T03:45:46.370Z"
}