{
  "contractName": "AuctionBid",
  "abi": [
    {
      "constant": true,
      "inputs": [],
      "name": "highestPrice",
      "outputs": [
        {
          "name": "",
          "type": "uint256"
        }
      ],
      "payable": false,
      "stateMutability": "view",
      "type": "function"
    },
    {
      "constant": true,
      "inputs": [],
      "name": "blc",
      "outputs": [
        {
          "name": "",
          "type": "address"
        }
      ],
      "payable": false,
      "stateMutability": "view",
      "type": "function"
    },
    {
      "constant": true,
      "inputs": [
        {
          "name": "",
          "type": "uint256"
        }
      ],
      "name": "bids",
      "outputs": [
        {
          "name": "bidder",
          "type": "address"
        },
        {
          "name": "value",
          "type": "uint256"
        },
        {
          "name": "time",
          "type": "uint256"
        }
      ],
      "payable": false,
      "stateMutability": "view",
      "type": "function"
    },
    {
      "constant": true,
      "inputs": [],
      "name": "owner",
      "outputs": [
        {
          "name": "",
          "type": "address"
        }
      ],
      "payable": false,
      "stateMutability": "view",
      "type": "function"
    },
    {
      "constant": true,
      "inputs": [],
      "name": "highestBidder",
      "outputs": [
        {
          "name": "",
          "type": "address"
        }
      ],
      "payable": false,
      "stateMutability": "view",
      "type": "function"
    },
    {
      "constant": true,
      "inputs": [],
      "name": "nextStep",
      "outputs": [
        {
          "name": "",
          "type": "uint256"
        }
      ],
      "payable": false,
      "stateMutability": "view",
      "type": "function"
    },
    {
      "inputs": [],
      "payable": false,
      "stateMutability": "nonpayable",
      "type": "constructor"
    },
    {
      "anonymous": false,
      "inputs": [
        {
          "indexed": false,
          "name": "player",
          "type": "address"
        },
        {
          "indexed": false,
          "name": "value",
          "type": "uint256"
        },
        {
          "indexed": false,
          "name": "time",
          "type": "uint256"
        }
      ],
      "name": "HighestBidIncrease",
      "type": "event"
    },
    {
      "anonymous": false,
      "inputs": [
        {
          "indexed": false,
          "name": "winner",
          "type": "address"
        },
        {
          "indexed": false,
          "name": "value",
          "type": "uint256"
        }
      ],
      "name": "AuctionEnded",
      "type": "event"
    },
    {
      "constant": false,
      "inputs": [
        {
          "name": "_startPrice",
          "type": "uint256"
        }
      ],
      "name": "startBidding",
      "outputs": [],
      "payable": false,
      "stateMutability": "nonpayable",
      "type": "function"
    },
    {
      "constant": false,
      "inputs": [
        {
          "name": "_time",
          "type": "uint256"
        },
        {
          "name": "_value",
          "type": "uint256"
        }
      ],
      "name": "bid",
      "outputs": [],
      "payable": false,
      "stateMutability": "nonpayable",
      "type": "function"
    },
    {
      "constant": false,
      "inputs": [],
      "name": "auctionEnd",
      "outputs": [],
      "payable": false,
      "stateMutability": "nonpayable",
      "type": "function"
    },
    {
      "constant": false,
      "inputs": [],
      "name": "withdraw",
      "outputs": [],
      "payable": false,
      "stateMutability": "nonpayable",
      "type": "function"
    },
    {
      "constant": true,
      "inputs": [],
      "name": "getBidLength",
      "outputs": [
        {
          "name": "",
          "type": "uint256"
        }
      ],
      "payable": false,
      "stateMutability": "view",
      "type": "function"
    }
  ],
  "bytecode": "0x608060405234801561001057600080fd5b5060008054600160a060020a031990811673cb000a6bd06efed410b8438100c46c98f685c616179091556007805490911673b768e1155041126ee5668ba907ab5bd6e7788e05179055610a94806100686000396000f3006080604052600436106100ae5763ffffffff7c01000000000000000000000000000000000000000000000000000000006000350416630e8670e081146100b35780631c0f72e1146100da5780632a24f46c1461010b5780632bc76090146101225780633ccfd60b146101375780634423c5f11461014c578063598647f81461018c5780638da5cb5b146101a757806391f90157146101bc578063a09e9c1d146101d1578063c9000726146101e9575b600080fd5b3480156100bf57600080fd5b506100c86101fe565b60408051918252519081900360200190f35b3480156100e657600080fd5b506100ef610204565b60408051600160a060020a039092168252519081900360200190f35b34801561011757600080fd5b50610120610213565b005b34801561012e57600080fd5b506100c861042f565b34801561014357600080fd5b50610120610435565b34801561015857600080fd5b5061016460043561051a565b60408051600160a060020a039094168452602084019290925282820152519081900360600190f35b34801561019857600080fd5b50610120600435602435610555565b3480156101b357600080fd5b506100ef610940565b3480156101c857600080fd5b506100ef610955565b3480156101dd57600080fd5b50610120600435610964565b3480156101f557600080fd5b506100c8610a62565b60025481565b600754600160a060020a031681565b60035460009060ff1615610271576040805160e560020a62461bcd02815260206004820152601560248201527f41756374696f6e206e6f742079657420656e6465640000000000000000000000604482015290519081900360640190fd5b60038054600160ff19909116811761ff0019169091555460025460408051600160a060020a039093168352602083019190915280517fdaec4582d5d9595688c8c98545fdd1c696d41c6aeaeb636737e84ed2f5c00eda9281900390910190a150600280546064600a8202049081900390915560075460008054604080517fa9059cbb000000000000000000000000000000000000000000000000000000008152600160a060020a039283166004820152602481018690529051919093169263a9059cbb9260448083019360209390929083900390910190829087803b15801561035957600080fd5b505af115801561036d573d6000803e3d6000fd5b505050506040513d602081101561038357600080fd5b5050600754600354600254604080517fa9059cbb00000000000000000000000000000000000000000000000000000000815262010000909304600160a060020a03908116600485015260248401929092525192169163a9059cbb916044808201926020929091908290030181600087803b15801561040057600080fd5b505af1158015610414573d6000803e3d6000fd5b505050506040513d602081101561042a57600080fd5b505050565b60065490565b600154600090600160a060020a03163314156104c1576040805160e560020a62461bcd02815260206004820152602a60248201527f43616e206f6e6c79207769746864726177206d6f6e6579207768656e2061756360448201527f74696f6e20656e64656400000000000000000000000000000000000000000000606482015290519081900360840190fd5b50336000908152600560205260408120549081111561051757336000818152600560205260408082208290555183156108fc0291849190818181858888f19350505050158015610515573d6000803e3d6000fd5b505b50565b600680548290811061052857fe5b6000918252602090912060039091020180546001820154600290920154600160a060020a03909116925083565b60035460ff16156105b0576040805160e560020a62461bcd02815260206004820152600d60248201527f41756374696f6e20656e64656400000000000000000000000000000000000000604482015290519081900360640190fd5b60035460ff610100909104161515600114610615576040805160e560020a62461bcd02815260206004820152601160248201527f41756374696f6e20697320636c6f736564000000000000000000000000000000604482015290519081900360640190fd5b60048054600754604080517f70a082310000000000000000000000000000000000000000000000000000000081523394810194909452519192600160a060020a03909116916370a08231916024808201926020929091908290030181600087803b15801561068257600080fd5b505af1158015610696573d6000803e3d6000fd5b505050506040513d60208110156106ac57600080fd5b50511015610704576040805160e560020a62461bcd02815260206004820152601f60248201527f596f752068617665206e6f206d6f6e65792c206c65742062757920736f6d6500604482015290519081900360640190fd5b60045481101561075e576040805160e560020a62461bcd02815260206004820152601e60248201527f43616e27742062696420756e64657220746865206e6578742070726963650000604482015290519081900360640190fd5b600754604080517f23b872dd000000000000000000000000000000000000000000000000000000008152336004820152306024820152604481018490529051600160a060020a03909216916323b872dd916064808201926020929091908290030181600087803b1580156107d157600080fd5b505af11580156107e5573d6000803e3d6000fd5b505050506040513d60208110156107fb57600080fd5b505060408051606080820183523380835260208084018681528486018881526006805460018082018355600092835297517ff652222313e28459528d920b65115c16c04f3efc82aaedc97be59f3f377c0d3f6003909202918201805473ffffffffffffffffffffffffffffffffffffffff19908116600160a060020a039384161790915594517ff652222313e28459528d920b65115c16c04f3efc82aaedc97be59f3f377c0d4083015592517ff652222313e28459528d920b65115c16c04f3efc82aaedc97be59f3f377c0d4190910155865490921684179586905560028890559490941684526005815292849020805486019055835190815291820184905281830185905291517f01b9fc52c28789fc4cca7b4d4989ca1dec33f32c77179d67582f1d7925a89fbb929181900390910190a150506002546064603282020401600455565b600354620100009004600160a060020a031681565b600154600160a060020a031681565b600354610100900460ff16156109c4576040805160e560020a62461bcd02815260206004820152600f60248201527f41756374696f6e20737461727465640000000000000000000000000000000000604482015290519081900360640190fd5b60035460ff1615610a1f576040805160e560020a62461bcd02815260206004820152600d60248201527f41756374696f6e20656e64656400000000000000000000000000000000000000604482015290519081900360640190fd5b6003805461010075ffffffffffffffffffffffffffffffffffffffff0000199091163362010000021761ff00191617905560028190556064603282020401600455565b600454815600a165627a7a72305820f8052946e3d2f5c03b7093344f562e8818980cddb53d7abd1e4d7a632549e9040029",
  "source": "pragma solidity ^0.4.2;\r\nimport \"./DappToken.sol\";\r\n\r\ncontract AuctionBid {\r\n    address admin;\r\n   \r\n    \r\n    address public highestBidder;\r\n    uint public highestPrice;\r\n    bool ended;\r\n    bool started;\r\n    address public owner;\r\n    uint public nextStep;\r\n    mapping(address => uint) withdrawMoney;\r\n    struct Bid {\r\n        address bidder;\r\n        uint value;\r\n        uint time;\r\n    }\r\n    Bid[] public bids;\r\n    DappToken public blc;\r\n    \r\n    \r\n    event HighestBidIncrease(address player, uint value, uint time);\r\n    event AuctionEnded(address winner, uint value);\r\n    \r\n    constructor() public {\r\n        admin = 0xcB000A6BD06Efed410B8438100C46C98f685c616;\r\n        blc = DappToken(0xb768E1155041126eE5668ba907ab5BD6E7788E05);\r\n        \r\n    }\r\n    function startBidding(uint _startPrice) public {\r\n        require(started == false, \"Auction started\");\r\n        require(ended == false, \"Auction ended\");\r\n        owner = msg.sender;\r\n        started = true;\r\n        highestPrice = _startPrice;\r\n        nextStep = highestPrice + (highestPrice*50)/100;\r\n    }\r\n    \r\n    function bid(uint _time, uint _value) public {\r\n        require(ended == false, \"Auction ended\");\r\n        require(started == true, \"Auction is closed\");\r\n        require(blc.balanceOf(msg.sender) >= nextStep, \"You have no money, let buy some\");\r\n        // nextStep = highestPrice + (highestPrice*50)/100;\r\n        require(_value >= nextStep, \"Can't bid under the next price\");\r\n\r\n        blc.transferFrom(msg.sender,this,_value);\r\n           \r\n        bids.push(Bid(msg.sender, _value, _time));\r\n        highestBidder = msg.sender;\r\n        highestPrice = _value;\r\n        withdrawMoney[highestBidder] += highestPrice;\r\n        emit HighestBidIncrease(msg.sender, _value, _time);\r\n        nextStep = highestPrice + (highestPrice*50)/100;\r\n    }\r\n\r\n    function auctionEnd() public {\r\n        // require(msg.sender == admin, \"Only the admin can do this\");\r\n        require(ended == false, \"Auction not yet ended\");\r\n        ended = true;\r\n        started = false;\r\n        emit AuctionEnded (highestBidder, highestPrice);\r\n        uint fees = (highestPrice * 10)/100;\r\n        highestPrice -= fees;\r\n       \r\n        blc.transfer(admin, fees);\r\n        blc.transfer(owner, highestPrice);\r\n    }\r\n    function withdraw() public  {\r\n        require(msg.sender != highestBidder, \"Can only withdraw money when auction ended\");\r\n        \r\n        uint amount = withdrawMoney[msg.sender];\r\n        if(amount > 0 ) {\r\n            withdrawMoney[msg.sender] = 0;\r\n            msg.sender.transfer(amount);\r\n        }\r\n    }\r\n    function getBidLength () public view returns(uint) {\r\n        return bids.length;\r\n    }\r\n}",
  "sourcePath": "E:\\CNTT\\Fetch-Company\\Workdir\\SmartContract\\auction\\contracts\\AuctionBid.sol",
  "compiler": {
    "name": "solc",
    "version": "0.4.24+commit.e67f0147.Emscripten.clang"
  },
  "schemaVersion": "2.0.1",
  "updatedAt": "2018-08-30T14:07:42.304Z"
}