{
  "contractName": "AuctionBid",
  "abi": [
    {
      "constant": true,
      "inputs": [],
      "name": "highestPrice",
      "outputs": [
        {
          "name": "",
          "type": "uint256"
        }
      ],
      "payable": false,
      "stateMutability": "view",
      "type": "function"
    },
    {
      "constant": true,
      "inputs": [],
      "name": "blc",
      "outputs": [
        {
          "name": "",
          "type": "address"
        }
      ],
      "payable": false,
      "stateMutability": "view",
      "type": "function"
    },
    {
      "constant": true,
      "inputs": [
        {
          "name": "",
          "type": "uint256"
        }
      ],
      "name": "bids",
      "outputs": [
        {
          "name": "bidder",
          "type": "address"
        },
        {
          "name": "value",
          "type": "uint256"
        },
        {
          "name": "time",
          "type": "uint256"
        }
      ],
      "payable": false,
      "stateMutability": "view",
      "type": "function"
    },
    {
      "constant": true,
      "inputs": [],
      "name": "balanceOf",
      "outputs": [
        {
          "name": "",
          "type": "uint256"
        }
      ],
      "payable": false,
      "stateMutability": "view",
      "type": "function"
    },
    {
      "constant": true,
      "inputs": [],
      "name": "owner",
      "outputs": [
        {
          "name": "",
          "type": "address"
        }
      ],
      "payable": false,
      "stateMutability": "view",
      "type": "function"
    },
    {
      "constant": true,
      "inputs": [],
      "name": "highestBidder",
      "outputs": [
        {
          "name": "",
          "type": "address"
        }
      ],
      "payable": false,
      "stateMutability": "view",
      "type": "function"
    },
    {
      "constant": true,
      "inputs": [],
      "name": "nextStep",
      "outputs": [
        {
          "name": "",
          "type": "uint256"
        }
      ],
      "payable": false,
      "stateMutability": "view",
      "type": "function"
    },
    {
      "inputs": [],
      "payable": false,
      "stateMutability": "nonpayable",
      "type": "constructor"
    },
    {
      "anonymous": false,
      "inputs": [
        {
          "indexed": false,
          "name": "player",
          "type": "address"
        },
        {
          "indexed": false,
          "name": "value",
          "type": "uint256"
        },
        {
          "indexed": false,
          "name": "time",
          "type": "uint256"
        }
      ],
      "name": "HighestBidIncrease",
      "type": "event"
    },
    {
      "anonymous": false,
      "inputs": [
        {
          "indexed": false,
          "name": "winner",
          "type": "address"
        },
        {
          "indexed": false,
          "name": "value",
          "type": "uint256"
        }
      ],
      "name": "AuctionEnded",
      "type": "event"
    },
    {
      "constant": false,
      "inputs": [
        {
          "name": "_startPrice",
          "type": "uint256"
        }
      ],
      "name": "startBidding",
      "outputs": [],
      "payable": false,
      "stateMutability": "nonpayable",
      "type": "function"
    },
    {
      "constant": false,
      "inputs": [
        {
          "name": "_time",
          "type": "uint256"
        },
        {
          "name": "_value",
          "type": "uint256"
        }
      ],
      "name": "bid",
      "outputs": [],
      "payable": false,
      "stateMutability": "nonpayable",
      "type": "function"
    },
    {
      "constant": false,
      "inputs": [],
      "name": "auctionEnd",
      "outputs": [],
      "payable": false,
      "stateMutability": "nonpayable",
      "type": "function"
    },
    {
      "constant": false,
      "inputs": [],
      "name": "withdraw",
      "outputs": [],
      "payable": false,
      "stateMutability": "nonpayable",
      "type": "function"
    },
    {
      "constant": true,
      "inputs": [],
      "name": "getBidLength",
      "outputs": [
        {
          "name": "",
          "type": "uint256"
        }
      ],
      "payable": false,
      "stateMutability": "view",
      "type": "function"
    }
  ],
  "bytecode": "0x608060405234801561001057600080fd5b5060008054600160a060020a031990811673cb000a6bd06efed410b8438100c46c98f685c6161790915560078054909116730ef72c129aed97e869bddedfb4a3ea628e9a7eb4179055610ae7806100686000396000f3006080604052600436106100b95763ffffffff7c01000000000000000000000000000000000000000000000000000000006000350416630e8670e081146100be5780631c0f72e1146100e55780632a24f46c146101165780632bc760901461012d5780633ccfd60b146101425780634423c5f114610157578063598647f814610197578063722713f7146101b25780638da5cb5b146101c757806391f90157146101dc578063a09e9c1d146101f1578063c900072614610209575b600080fd5b3480156100ca57600080fd5b506100d361021e565b60408051918252519081900360200190f35b3480156100f157600080fd5b506100fa610224565b60408051600160a060020a039092168252519081900360200190f35b34801561012257600080fd5b5061012b610233565b005b34801561013957600080fd5b506100d3610465565b34801561014e57600080fd5b5061012b61046b565b34801561016357600080fd5b5061016f600435610567565b60408051600160a060020a039094168452602084019290925282820152519081900360600190f35b3480156101a357600080fd5b5061012b6004356024356105a2565b3480156101be57600080fd5b506100d361098d565b3480156101d357600080fd5b506100fa610993565b3480156101e857600080fd5b506100fa6109a8565b3480156101fd57600080fd5b5061012b6004356109b7565b34801561021557600080fd5b506100d3610ab5565b60025481565b600754600160a060020a031681565b60035460009060ff1615610291576040805160e560020a62461bcd02815260206004820152601560248201527f41756374696f6e206e6f742079657420656e6465640000000000000000000000604482015290519081900360640190fd5b60038054600160ff19909116811761ff0019169091555460025460408051600160a060020a039093168352602083019190915280517fdaec4582d5d9595688c8c98545fdd1c696d41c6aeaeb636737e84ed2f5c00eda9281900390910190a150600280546064600a8202049081900391829055600154600160a060020a039081166000908152600560209081526040808320805496909603909555600754825486517fa9059cbb0000000000000000000000000000000000000000000000000000000081529085166004820152602481018690529551949593169363a9059cbb93604480820194918390030190829087803b15801561038f57600080fd5b505af11580156103a3573d6000803e3d6000fd5b505050506040513d60208110156103b957600080fd5b5050600754600354600254604080517fa9059cbb00000000000000000000000000000000000000000000000000000000815262010000909304600160a060020a03908116600485015260248401929092525192169163a9059cbb916044808201926020929091908290030181600087803b15801561043657600080fd5b505af115801561044a573d6000803e3d6000fd5b505050506040513d602081101561046057600080fd5b505050565b60065490565b60035460009060ff1615156001146104cd576040805160e560020a62461bcd02815260206004820152601960248201527f4f6e6c792063616c6c207768656e206974277320656e64656400000000000000604482015290519081900360640190fd5b5033600090815260056020526040812054908111156105645733600081815260056020908152604080832083905560075481517fa9059cbb0000000000000000000000000000000000000000000000000000000081526004810195909552602485018690529051600160a060020a039091169363a9059cbb9360448083019493928390030190829087803b15801561043657600080fd5b50565b600680548290811061057557fe5b6000918252602090912060039091020180546001820154600290920154600160a060020a03909116925083565b60035460ff16156105fd576040805160e560020a62461bcd02815260206004820152600d60248201527f41756374696f6e20656e64656400000000000000000000000000000000000000604482015290519081900360640190fd5b60035460ff610100909104161515600114610662576040805160e560020a62461bcd02815260206004820152601160248201527f41756374696f6e20697320636c6f736564000000000000000000000000000000604482015290519081900360640190fd5b60048054600754604080517f70a082310000000000000000000000000000000000000000000000000000000081523394810194909452519192600160a060020a03909116916370a08231916024808201926020929091908290030181600087803b1580156106cf57600080fd5b505af11580156106e3573d6000803e3d6000fd5b505050506040513d60208110156106f957600080fd5b50511015610751576040805160e560020a62461bcd02815260206004820152601f60248201527f596f752068617665206e6f206d6f6e65792c206c65742062757920736f6d6500604482015290519081900360640190fd5b6004548110156107ab576040805160e560020a62461bcd02815260206004820152601e60248201527f43616e27742062696420756e64657220746865206e6578742070726963650000604482015290519081900360640190fd5b600754604080517f23b872dd000000000000000000000000000000000000000000000000000000008152336004820152306024820152604481018490529051600160a060020a03909216916323b872dd916064808201926020929091908290030181600087803b15801561081e57600080fd5b505af1158015610832573d6000803e3d6000fd5b505050506040513d602081101561084857600080fd5b505060408051606080820183523380835260208084018681528486018881526006805460018082018355600092835297517ff652222313e28459528d920b65115c16c04f3efc82aaedc97be59f3f377c0d3f6003909202918201805473ffffffffffffffffffffffffffffffffffffffff19908116600160a060020a039384161790915594517ff652222313e28459528d920b65115c16c04f3efc82aaedc97be59f3f377c0d4083015592517ff652222313e28459528d920b65115c16c04f3efc82aaedc97be59f3f377c0d4190910155865490921684179586905560028890559490941684526005815292849020805486019055835190815291820184905281830185905291517f01b9fc52c28789fc4cca7b4d4989ca1dec33f32c77179d67582f1d7925a89fbb929181900390910190a150506002546064603282020401600455565b60085481565b600354620100009004600160a060020a031681565b600154600160a060020a031681565b600354610100900460ff1615610a17576040805160e560020a62461bcd02815260206004820152600f60248201527f41756374696f6e20737461727465640000000000000000000000000000000000604482015290519081900360640190fd5b60035460ff1615610a72576040805160e560020a62461bcd02815260206004820152600d60248201527f41756374696f6e20656e64656400000000000000000000000000000000000000604482015290519081900360640190fd5b6003805461010075ffffffffffffffffffffffffffffffffffffffff0000199091163362010000021761ff00191617905560028190556064603282020401600455565b600454815600a165627a7a72305820e99535afc85cb27eee674dc9c1ae5906284d14289482fd4a164cc6e214f625060029",
  "source": "pragma solidity ^0.4.2;\r\nimport \"./DappToken.sol\";\r\n\r\ncontract AuctionBid {\r\n    address admin;\r\n   \r\n    \r\n    address public highestBidder;\r\n    uint public highestPrice;\r\n    bool ended;\r\n    bool started;\r\n    address public owner;\r\n    uint public nextStep;\r\n    mapping(address => uint) withdrawMoney;\r\n    struct Bid {\r\n        address bidder;\r\n        uint value;\r\n        uint time;\r\n    }\r\n    Bid[] public bids;\r\n    DappToken public blc;\r\n    uint public balanceOf;\r\n    \r\n    event HighestBidIncrease(address player, uint value, uint time);\r\n    event AuctionEnded(address winner, uint value);\r\n    \r\n    constructor() public {\r\n        admin = 0xcB000A6BD06Efed410B8438100C46C98f685c616;\r\n        blc = DappToken(0x0EF72c129Aed97E869bDDEdFB4a3EA628e9a7eb4);\r\n        \r\n    }\r\n    function startBidding(uint _startPrice) public {\r\n        require(started == false, \"Auction started\");\r\n        require(ended == false, \"Auction ended\");\r\n        owner = msg.sender;\r\n        started = true;\r\n        highestPrice = _startPrice;\r\n        nextStep = (highestPrice + (highestPrice*50)/100);\r\n    }\r\n    \r\n    function bid(uint _time, uint _value) public {\r\n        require(ended == false, \"Auction ended\");\r\n        require(started == true, \"Auction is closed\");\r\n    \r\n        require(blc.balanceOf(msg.sender) >= nextStep, \"You have no money, let buy some\");\r\n        require(_value >= nextStep, \"Can't bid under the next price\");\r\n\r\n        blc.transferFrom(msg.sender,this,_value);\r\n           \r\n        bids.push(Bid(msg.sender, _value, _time));\r\n        highestBidder = msg.sender;\r\n        highestPrice = _value;\r\n        withdrawMoney[highestBidder] += highestPrice;\r\n        emit HighestBidIncrease(msg.sender, _value, _time);\r\n        nextStep = highestPrice + (highestPrice*50)/100;\r\n    }\r\n\r\n    function auctionEnd() public {\r\n        // require(msg.sender == admin, \"Only the admin can do this\");\r\n        require(ended == false, \"Auction not yet ended\");\r\n        ended = true;\r\n        started = false;\r\n        emit AuctionEnded (highestBidder, highestPrice);\r\n        uint fees = (highestPrice * 10)/100;\r\n        highestPrice -= fees;\r\n        withdrawMoney[highestBidder] = withdrawMoney[highestBidder] - highestPrice;\r\n        blc.transfer(admin, fees);\r\n        blc.transfer(owner, highestPrice);\r\n    }\r\n    function withdraw() public  {\r\n        require(ended == true, \"Only call when it's ended\");\r\n        uint amount = withdrawMoney[msg.sender];\r\n        if(amount > 0 ) {\r\n             \r\n            withdrawMoney[msg.sender] = 0;\r\n            blc.transfer(msg.sender, amount);\r\n        }\r\n    }\r\n    function getBidLength () public view returns(uint) {\r\n        return bids.length;\r\n    }\r\n}",
  "sourcePath": "E:\\CNTT\\Fetch-Company\\Workdir\\SmartContract\\auction\\contracts\\AuctionBid.sol",
  "compiler": {
    "name": "solc",
    "version": "0.4.24+commit.e67f0147.Emscripten.clang"
  },
  "schemaVersion": "2.0.1",
  "updatedAt": "2018-09-05T10:04:32.998Z"
}