{
  "contractName": "AuctionBid",
  "abi": [
    {
      "constant": true,
      "inputs": [],
      "name": "highestPrice",
      "outputs": [
        {
          "name": "",
          "type": "uint256"
        }
      ],
      "payable": false,
      "stateMutability": "view",
      "type": "function"
    },
    {
      "constant": true,
      "inputs": [
        {
          "name": "",
          "type": "uint256"
        }
      ],
      "name": "bids",
      "outputs": [
        {
          "name": "bidder",
          "type": "address"
        },
        {
          "name": "value",
          "type": "uint256"
        }
      ],
      "payable": false,
      "stateMutability": "view",
      "type": "function"
    },
    {
      "constant": true,
      "inputs": [],
      "name": "owner",
      "outputs": [
        {
          "name": "",
          "type": "address"
        }
      ],
      "payable": false,
      "stateMutability": "view",
      "type": "function"
    },
    {
      "constant": true,
      "inputs": [],
      "name": "highestBidder",
      "outputs": [
        {
          "name": "",
          "type": "address"
        }
      ],
      "payable": false,
      "stateMutability": "view",
      "type": "function"
    },
    {
      "constant": true,
      "inputs": [],
      "name": "nextStep",
      "outputs": [
        {
          "name": "",
          "type": "uint256"
        }
      ],
      "payable": false,
      "stateMutability": "view",
      "type": "function"
    },
    {
      "inputs": [],
      "payable": false,
      "stateMutability": "nonpayable",
      "type": "constructor"
    },
    {
      "anonymous": false,
      "inputs": [
        {
          "indexed": false,
          "name": "player",
          "type": "address"
        },
        {
          "indexed": false,
          "name": "value",
          "type": "uint256"
        }
      ],
      "name": "HighestBidIncrease",
      "type": "event"
    },
    {
      "anonymous": false,
      "inputs": [
        {
          "indexed": false,
          "name": "winner",
          "type": "address"
        },
        {
          "indexed": false,
          "name": "value",
          "type": "uint256"
        }
      ],
      "name": "AuctionEnded",
      "type": "event"
    },
    {
      "constant": false,
      "inputs": [
        {
          "name": "_startPrice",
          "type": "uint256"
        }
      ],
      "name": "startBidding",
      "outputs": [],
      "payable": false,
      "stateMutability": "nonpayable",
      "type": "function"
    },
    {
      "constant": false,
      "inputs": [],
      "name": "bid",
      "outputs": [],
      "payable": true,
      "stateMutability": "payable",
      "type": "function"
    },
    {
      "constant": false,
      "inputs": [],
      "name": "auctionEnd",
      "outputs": [],
      "payable": false,
      "stateMutability": "nonpayable",
      "type": "function"
    },
    {
      "constant": false,
      "inputs": [],
      "name": "withdraw",
      "outputs": [],
      "payable": false,
      "stateMutability": "nonpayable",
      "type": "function"
    }
  ],
  "bytecode": "0x608060405234801561001057600080fd5b5060008054600160a060020a03191673d66faa1da31df7939597fe07ab6e9e8a57f096e817905561081d806100466000396000f3006080604052600436106100985763ffffffff7c01000000000000000000000000000000000000000000000000000000006000350416630e8670e0811461009d5780631998aeef146100c45780632a24f46c146100ce5780633ccfd60b146100e35780634423c5f1146100f85780638da5cb5b1461013357806391f9015714610164578063a09e9c1d14610179578063c900072614610191575b600080fd5b3480156100a957600080fd5b506100b26101a6565b60408051918252519081900360200190f35b6100cc6101ac565b005b3480156100da57600080fd5b506100cc610461565b3480156100ef57600080fd5b506100cc6105b0565b34801561010457600080fd5b50610110600435610693565b60408051600160a060020a03909316835260208301919091528051918290030190f35b34801561013f57600080fd5b506101486106c9565b60408051600160a060020a039092168252519081900360200190f35b34801561017057600080fd5b506101486106de565b34801561018557600080fd5b506100cc6004356106ed565b34801561019d57600080fd5b506100b26107eb565b60025481565b60035460ff1615610207576040805160e560020a62461bcd02815260206004820152600d60248201527f41756374696f6e20656e64656400000000000000000000000000000000000000604482015290519081900360640190fd5b60035460ff61010090910416151560011461026c576040805160e560020a62461bcd02815260206004820152601160248201527f41756374696f6e20697320636c6f736564000000000000000000000000000000604482015290519081900360640190fd5b60003331116102c5576040805160e560020a62461bcd02815260206004820152601f60248201527f596f752068617665206e6f206d6f6e65792c206c65742062757920736f6d6500604482015290519081900360640190fd5b60045434101561031f576040805160e560020a62461bcd02815260206004820152601e60248201527f43616e27742062696420756e64657220746865206e6578742070726963650000604482015290519081900360640190fd5b6040805180820190915233815234602082019081526006805460018181018355600092909252925160029093027ff652222313e28459528d920b65115c16c04f3efc82aaedc97be59f3f377c0d3f81018054600160a060020a0395861673ffffffffffffffffffffffffffffffffffffffff1990911617905591517ff652222313e28459528d920b65115c16c04f3efc82aaedc97be59f3f377c0d40909201919091555416156103ee57600254600154600160a060020a03166000908152600560205260409020805490910190555b6001805473ffffffffffffffffffffffffffffffffffffffff19163390811790915534600281905560408051928352602083019190915280517fdfea07ab8527bd08519bfa633240757a7bb0a7f3c7adc98e30604ba73c70f4299281900390910190a16002546064603282020401600455565b60035460009060ff16156104bf576040805160e560020a62461bcd02815260206004820152601560248201527f41756374696f6e206e6f742079657420656e6465640000000000000000000000604482015290519081900360640190fd5b60038054600160ff19909116811761ff0019169091555460025460408051600160a060020a039093168352602083019190915280517fdaec4582d5d9595688c8c98545fdd1c696d41c6aeaeb636737e84ed2f5c00eda9281900390910190a150600280546064600a8202049081900390915560008054604051600160a060020a03909116916108fc841502918491818181858888f1935050505015801561056a573d6000803e3d6000fd5b5060035460025460405162010000909204600160a060020a0316916108fc82150291906000818181858888f193505050501580156105ac573d6000803e3d6000fd5b5050565b600154600090600160a060020a031633141561063c576040805160e560020a62461bcd02815260206004820152602a60248201527f43616e206f6e6c79207769746864726177206d6f6e6579207768656e2061756360448201527f74696f6e20656e64656400000000000000000000000000000000000000000000606482015290519081900360840190fd5b50336000908152600560205260408120549081111561069057336000818152600560205260408082208290555183156108fc0291849190818181858888f193505050501580156105ac573d6000803e3d6000fd5b50565b60068054829081106106a157fe5b600091825260209091206002909102018054600190910154600160a060020a03909116915082565b600354620100009004600160a060020a031681565b600154600160a060020a031681565b600354610100900460ff161561074d576040805160e560020a62461bcd02815260206004820152600f60248201527f41756374696f6e20737461727465640000000000000000000000000000000000604482015290519081900360640190fd5b60035460ff16156107a8576040805160e560020a62461bcd02815260206004820152600d60248201527f41756374696f6e20656e64656400000000000000000000000000000000000000604482015290519081900360640190fd5b6003805461010075ffffffffffffffffffffffffffffffffffffffff0000199091163362010000021761ff00191617905560028190556064603282020401600455565b600454815600a165627a7a72305820ef159b72b205ee9e8684dec6a3e12765d204b3e3413c6464603aa245f3493e820029",
  "source": "pragma solidity ^0.4.2;\r\n\r\ncontract AuctionBid {\r\n    address admin;\r\n\r\n    address public highestBidder;\r\n    uint public highestPrice;\r\n    bool ended;\r\n    bool started;\r\n    address public owner;\r\n    uint public nextStep;\r\n    mapping(address => uint) withdrawMoney;\r\n    struct Bid {\r\n        address bidder;\r\n        uint value;\r\n    }\r\n    Bid[] public bids;\r\n    \r\n    event HighestBidIncrease(address player, uint value);\r\n    event AuctionEnded(address winner, uint value);\r\n    \r\n    constructor() public {\r\n        admin = 0xD66fAa1DA31Df7939597fe07AB6E9E8A57F096E8;\r\n    }\r\n    function startBidding(uint _startPrice) public {\r\n        require(started == false, \"Auction started\");\r\n        require(ended == false, \"Auction ended\");\r\n        owner = msg.sender;\r\n        started = true;\r\n        highestPrice = _startPrice;\r\n        nextStep = highestPrice + (highestPrice*50)/100;\r\n    }\r\n    \r\n    function bid() public payable {\r\n        require(ended == false, \"Auction ended\");\r\n        require(started == true, \"Auction is closed\");\r\n        require(msg.sender.balance > 0, \"You have no money, let buy some\");\r\n        // nextStep = highestPrice + (highestPrice*50)/100;\r\n        require(msg.value >= nextStep, \"Can't bid under the next price\");\r\n        bids.push(Bid(msg.sender, msg.value));\r\n        if(highestBidder != 0x0000000000000000000000000000000000000000) {\r\n            withdrawMoney[highestBidder] += highestPrice;\r\n        }\r\n        highestBidder = msg.sender;\r\n        highestPrice = msg.value;\r\n        emit HighestBidIncrease(msg.sender, msg.value);\r\n        nextStep = highestPrice + (highestPrice*50)/100;\r\n    }\r\n\r\n    function auctionEnd() public {\r\n        // require(msg.sender == admin, \"Only the admin can do this\");\r\n        require(ended == false, \"Auction not yet ended\");\r\n        ended = true;\r\n        started = false;\r\n        emit AuctionEnded (highestBidder, highestPrice);\r\n        uint fees = (highestPrice * 10)/100;\r\n        highestPrice -= fees;\r\n       \r\n        admin.transfer(fees);\r\n        owner.transfer(highestPrice);\r\n    }\r\n    function withdraw() public  {\r\n        require(msg.sender != highestBidder, \"Can only withdraw money when auction ended\");\r\n        \r\n        uint amount = withdrawMoney[msg.sender];\r\n        if(amount > 0 ) {\r\n            withdrawMoney[msg.sender] = 0;\r\n            msg.sender.transfer(amount);\r\n        }\r\n    }\r\n}",
  "sourcePath": "E:\\CNTT\\Fetch-Company\\Workdir\\SmartContract\\auction\\contracts\\AuctionBid.sol",
  "compiler": {
    "name": "solc",
    "version": "0.4.24+commit.e67f0147.Emscripten.clang"
  },
  "schemaVersion": "2.0.1",
  "updatedAt": "2018-08-16T03:41:47.479Z"
}