{
  "contractName": "DappTokenSale",
  "abi": [
    {
      "constant": true,
      "inputs": [],
      "name": "tokenSold",
      "outputs": [
        {
          "name": "",
          "type": "uint256"
        }
      ],
      "payable": false,
      "stateMutability": "view",
      "type": "function"
    },
    {
      "constant": true,
      "inputs": [],
      "name": "tokenContract",
      "outputs": [
        {
          "name": "",
          "type": "address"
        }
      ],
      "payable": false,
      "stateMutability": "view",
      "type": "function"
    },
    {
      "constant": true,
      "inputs": [],
      "name": "tokenPrice",
      "outputs": [
        {
          "name": "",
          "type": "uint256"
        }
      ],
      "payable": false,
      "stateMutability": "view",
      "type": "function"
    },
    {
      "constant": true,
      "inputs": [],
      "name": "tokenLeft",
      "outputs": [
        {
          "name": "",
          "type": "uint256"
        }
      ],
      "payable": false,
      "stateMutability": "view",
      "type": "function"
    },
    {
      "inputs": [
        {
          "name": "_tokenContract",
          "type": "address"
        },
        {
          "name": "_tokenPrice",
          "type": "uint256"
        }
      ],
      "payable": false,
      "stateMutability": "nonpayable",
      "type": "constructor"
    },
    {
      "anonymous": false,
      "inputs": [
        {
          "indexed": false,
          "name": "buyer",
          "type": "address"
        },
        {
          "indexed": false,
          "name": "_amount",
          "type": "uint256"
        }
      ],
      "name": "Sell",
      "type": "event"
    },
    {
      "constant": false,
      "inputs": [
        {
          "name": "_numberOfTokens",
          "type": "uint256"
        }
      ],
      "name": "buyTokens",
      "outputs": [],
      "payable": true,
      "stateMutability": "payable",
      "type": "function"
    },
    {
      "constant": false,
      "inputs": [],
      "name": "withdrawEth",
      "outputs": [],
      "payable": false,
      "stateMutability": "nonpayable",
      "type": "function"
    },
    {
      "constant": false,
      "inputs": [],
      "name": "endSale",
      "outputs": [],
      "payable": false,
      "stateMutability": "nonpayable",
      "type": "function"
    }
  ],
  "bytecode": "0x608060405234801561001057600080fd5b5060405160408061081b83398101604052805160209091015160008054600160a060020a0319908116331790915560018054600160a060020a0390941693909116929092179091556002556107b18061006a6000396000f3006080604052600436106100825763ffffffff7c01000000000000000000000000000000000000000000000000000000006000350416633610724e8114610087578063380d831b14610094578063519ee19e146100a957806355a373d6146100d05780637ff9b596146101015780639679dd7d14610116578063a0ef91df1461012b575b600080fd5b610092600435610140565b005b3480156100a057600080fd5b5061009261049e565b3480156100b557600080fd5b506100be610696565b60408051918252519081900360200190f35b3480156100dc57600080fd5b506100e561069c565b60408051600160a060020a039092168252519081900360200190f35b34801561010d57600080fd5b506100be6106ab565b34801561012257600080fd5b506100be6106b1565b34801561013757600080fd5b506100926106b7565b61014c6002548261070c565b34146101a2576040805160e560020a62461bcd02815260206004820152601760248201527f3120426c6f636861636f696e203d20302e303031455448000000000000000000604482015290519081900360640190fd5b600154604080517f70a082310000000000000000000000000000000000000000000000000000000081523060048201529051670de0b6b3a7640000840292600160a060020a0316916370a082319160248083019260209291908290030181600087803b15801561021157600080fd5b505af1158015610225573d6000803e3d6000fd5b505050506040513d602081101561023b57600080fd5b505110156102b9576040805160e560020a62461bcd02815260206004820152602160248201527f4e6f7420656e6f756768206d6f6e657920696e207468697320636f6e7472616360448201527f7400000000000000000000000000000000000000000000000000000000000000606482015290519081900360840190fd5b600154604080517fa9059cbb000000000000000000000000000000000000000000000000000000008152336004820152670de0b6b3a7640000840260248201529051600160a060020a039092169163a9059cbb916044808201926020929091908290030181600087803b15801561032f57600080fd5b505af1158015610343573d6000803e3d6000fd5b505050506040513d602081101561035957600080fd5b505115156103b1576040805160e560020a62461bcd02815260206004820152601960248201527f53686f756c64207472616e7366657220746865206d6f6e657900000000000000604482015290519081900360640190fd5b600154604080517f095ea7b300000000000000000000000000000000000000000000000000000000815233600482015260001960248201529051600160a060020a039092169163095ea7b3916044808201926020929091908290030181600087803b15801561041f57600080fd5b505af1158015610433573d6000803e3d6000fd5b505050506040513d602081101561044957600080fd5b505060038054670de0b6b3a7640000830290810190915560408051338152602081019290925280517f5e5e995ce3133561afceaa51a9a154d5db228cd7525d34df5185582c18d3df099281900390910190a150565b600054600160a060020a03163314610500576040805160e560020a62461bcd02815260206004820152601b60248201527f4f6e6c79207468652061646d696e2063616e2075736520746869730000000000604482015290519081900360640190fd5b60015460008054604080517f70a082310000000000000000000000000000000000000000000000000000000081523060048201529051600160a060020a039485169463a9059cbb9493169285926370a082319260248083019360209383900390910190829087803b15801561057457600080fd5b505af1158015610588573d6000803e3d6000fd5b505050506040513d602081101561059e57600080fd5b5051604080517c010000000000000000000000000000000000000000000000000000000063ffffffff8616028152600160a060020a03909316600484015260248301919091525160448083019260209291908290030181600087803b15801561060657600080fd5b505af115801561061a573d6000803e3d6000fd5b505050506040513d602081101561063057600080fd5b50511515610688576040805160e560020a62461bcd02815260206004820152601760248201527f4f6e6c792061646d696e2063616e207573652074686973000000000000000000604482015290519081900360640190fd5b600054600160a060020a0316ff5b60035481565b600154600160a060020a031681565b60025481565b60045481565b600054600160a060020a031633146106ce57600080fd5b60008054604051600160a060020a0390911691303180156108fc02929091818181858888f19350505050158015610709573d6000803e3d6000fd5b50565b600081158061072957505080820282828281151561072657fe5b04145b151561077f576040805160e560020a62461bcd02815260206004820152600660248201527f4572726f72730000000000000000000000000000000000000000000000000000604482015290519081900360640190fd5b929150505600a165627a7a72305820ee54b5419f80374f9b924ab259f50210c2249b37088350a9b2ec51d3869ccad60029",
  "source": "pragma solidity ^0.4.2;\r\nimport \"./DappToken.sol\";\r\n\r\ncontract DappTokenSale {\r\n    address admin;\r\n    \r\n    DappToken public tokenContract;\r\n\r\n    uint public tokenPrice;\r\n    uint public tokenSold;\r\n    uint public tokenLeft;\r\n    uint constant MAX_UINT = 2**256 - 1;\r\n    \r\n    event Sell (address buyer, uint _amount);\r\n    \r\n    constructor (DappToken _tokenContract, uint _tokenPrice) public {\r\n        admin = msg.sender;\r\n        tokenContract = _tokenContract;\r\n        tokenPrice = _tokenPrice;\r\n    }\r\n    function multiply(uint x, uint y) internal pure returns (uint z) {\r\n        require(y == 0 || (z = x * y) / y == x, \"Errors\");\r\n    }\r\n\r\n    function buyTokens (uint _numberOfTokens) public payable {\r\n        require(msg.value == multiply(tokenPrice, _numberOfTokens), \"1 Blochacoin = 0.001ETH\");\r\n        require(tokenContract.balanceOf(this) >= _numberOfTokens*10**18,  \"Not enough money in this contract\");\r\n        require(tokenContract.transfer(msg.sender, _numberOfTokens*10**18), \"Should transfer the money\");\r\n        tokenContract.approve(msg.sender, MAX_UINT);\r\n        tokenSold += _numberOfTokens*10**18;\r\n        emit Sell (msg.sender, _numberOfTokens*10**18);\r\n    }\r\n    function withdrawEth() public {\r\n        require(msg.sender == admin);\r\n        admin.transfer(this.balance);\r\n    }\r\n    function endSale() public {\r\n        require(msg.sender == admin, \"Only the admin can use this\");\r\n        require(tokenContract.transfer(admin, tokenContract.balanceOf(this)), \"Only admin can use this\");\r\n        \r\n        selfdestruct(admin);\r\n    }\r\n}",
  "sourcePath": "E:\\CNTT\\Fetch-Company\\Workdir\\SmartContract\\auction\\contracts\\DappTokenSale.sol",
  "compiler": {
    "name": "solc",
    "version": "0.4.24+commit.e67f0147.Emscripten.clang"
  },
  "schemaVersion": "2.0.1",
  "updatedAt": "2018-09-04T15:41:57.639Z"
}