{
  "contractName": "DappTokenSale",
  "abi": [
    {
      "constant": true,
      "inputs": [],
      "name": "tokenSold",
      "outputs": [
        {
          "name": "",
          "type": "uint256"
        }
      ],
      "payable": false,
      "stateMutability": "view",
      "type": "function"
    },
    {
      "constant": true,
      "inputs": [],
      "name": "tokenContract",
      "outputs": [
        {
          "name": "",
          "type": "address"
        }
      ],
      "payable": false,
      "stateMutability": "view",
      "type": "function"
    },
    {
      "constant": true,
      "inputs": [],
      "name": "tokenPrice",
      "outputs": [
        {
          "name": "",
          "type": "uint256"
        }
      ],
      "payable": false,
      "stateMutability": "view",
      "type": "function"
    },
    {
      "constant": true,
      "inputs": [],
      "name": "tokenLeft",
      "outputs": [
        {
          "name": "",
          "type": "uint256"
        }
      ],
      "payable": false,
      "stateMutability": "view",
      "type": "function"
    },
    {
      "inputs": [
        {
          "name": "_tokenContract",
          "type": "address"
        },
        {
          "name": "_tokenPrice",
          "type": "uint256"
        }
      ],
      "payable": false,
      "stateMutability": "nonpayable",
      "type": "constructor"
    },
    {
      "anonymous": false,
      "inputs": [
        {
          "indexed": false,
          "name": "buyer",
          "type": "address"
        },
        {
          "indexed": false,
          "name": "_amount",
          "type": "uint256"
        }
      ],
      "name": "Sell",
      "type": "event"
    },
    {
      "constant": false,
      "inputs": [
        {
          "name": "_numberOfTokens",
          "type": "uint256"
        }
      ],
      "name": "buyTokens",
      "outputs": [],
      "payable": true,
      "stateMutability": "payable",
      "type": "function"
    },
    {
      "constant": false,
      "inputs": [],
      "name": "endSale",
      "outputs": [],
      "payable": false,
      "stateMutability": "nonpayable",
      "type": "function"
    }
  ],
  "bytecode": "0x608060405234801561001057600080fd5b506040516040806106ec83398101604052805160209091015160008054600160a060020a0319908116331790915560018054600160a060020a0390941693909116929092179091556002556106828061006a6000396000f3006080604052600436106100775763ffffffff7c01000000000000000000000000000000000000000000000000000000006000350416633610724e811461007c578063380d831b14610089578063519ee19e1461009e57806355a373d6146100c55780637ff9b596146100f65780639679dd7d1461010b575b600080fd5b610087600435610120565b005b34801561009557600080fd5b506100876103c4565b3480156100aa57600080fd5b506100b36105bc565b60408051918252519081900360200190f35b3480156100d157600080fd5b506100da6105c2565b60408051600160a060020a039092168252519081900360200190f35b34801561010257600080fd5b506100b36105d1565b34801561011757600080fd5b506100b36105d7565b61012c600254826105dd565b3414610182576040805160e560020a62461bcd02815260206004820152601760248201527f3120426c6f636861636f696e203d20302e303031455448000000000000000000604482015290519081900360640190fd5b600154604080517f70a0823100000000000000000000000000000000000000000000000000000000815230600482015290518392600160a060020a0316916370a082319160248083019260209291908290030181600087803b1580156101e757600080fd5b505af11580156101fb573d6000803e3d6000fd5b505050506040513d602081101561021157600080fd5b5051101561028f576040805160e560020a62461bcd02815260206004820152602160248201527f4e6f7420656e6f756768206d6f6e657920696e207468697320636f6e7472616360448201527f7400000000000000000000000000000000000000000000000000000000000000606482015290519081900360840190fd5b600154604080517fa9059cbb000000000000000000000000000000000000000000000000000000008152336004820152602481018490529051600160a060020a039092169163a9059cbb916044808201926020929091908290030181600087803b1580156102fc57600080fd5b505af1158015610310573d6000803e3d6000fd5b505050506040513d602081101561032657600080fd5b5051151561037e576040805160e560020a62461bcd02815260206004820152601960248201527f53686f756c64207472616e7366657220746865206d6f6e657900000000000000604482015290519081900360640190fd5b6003805482019055604080513381526020810183905281517f5e5e995ce3133561afceaa51a9a154d5db228cd7525d34df5185582c18d3df09929181900390910190a150565b600054600160a060020a03163314610426576040805160e560020a62461bcd02815260206004820152601b60248201527f4f6e6c79207468652061646d696e2063616e2075736520746869730000000000604482015290519081900360640190fd5b60015460008054604080517f70a082310000000000000000000000000000000000000000000000000000000081523060048201529051600160a060020a039485169463a9059cbb9493169285926370a082319260248083019360209383900390910190829087803b15801561049a57600080fd5b505af11580156104ae573d6000803e3d6000fd5b505050506040513d60208110156104c457600080fd5b5051604080517c010000000000000000000000000000000000000000000000000000000063ffffffff8616028152600160a060020a03909316600484015260248301919091525160448083019260209291908290030181600087803b15801561052c57600080fd5b505af1158015610540573d6000803e3d6000fd5b505050506040513d602081101561055657600080fd5b505115156105ae576040805160e560020a62461bcd02815260206004820152601760248201527f4f6e6c792061646d696e2063616e207573652074686973000000000000000000604482015290519081900360640190fd5b600054600160a060020a0316ff5b60035481565b600154600160a060020a031681565b60025481565b60045481565b60008115806105fa5750508082028282828115156105f757fe5b04145b1515610650576040805160e560020a62461bcd02815260206004820152600660248201527f4572726f72730000000000000000000000000000000000000000000000000000604482015290519081900360640190fd5b929150505600a165627a7a723058202ae8d0d996c898d6777cbdc62078e395c3bd60e7da6d15a6dec6be6677038bc20029",
  "source": "pragma solidity ^0.4.2;\r\nimport \"./DappToken.sol\";\r\n\r\ncontract DappTokenSale {\r\n    address admin;\r\n    \r\n    DappToken public tokenContract;\r\n\r\n    uint public tokenPrice;\r\n    uint public tokenSold;\r\n    uint public tokenLeft;\r\n    \r\n    event Sell (address buyer, uint _amount);\r\n    \r\n    constructor (DappToken _tokenContract, uint _tokenPrice) public {\r\n        admin = msg.sender;\r\n        tokenContract = _tokenContract;\r\n        tokenPrice = _tokenPrice;\r\n    }\r\n    function multiply (uint x, uint y) internal pure returns (uint z) {\r\n        require(y == 0 || (z = x * y) / y == x, \"Errors\");\r\n    }\r\n\r\n    function buyTokens (uint _numberOfTokens) public payable {\r\n        require(msg.value == multiply(tokenPrice, _numberOfTokens), \"1 Blochacoin = 0.001ETH\");\r\n        require(tokenContract.balanceOf(this) >= _numberOfTokens,  \"Not enough money in this contract\");\r\n        require(tokenContract.transfer(msg.sender, _numberOfTokens), \"Should transfer the money\");\r\n        tokenSold += _numberOfTokens;\r\n        emit Sell (msg.sender, _numberOfTokens);\r\n    }\r\n    function endSale() public {\r\n        require(msg.sender == admin, \"Only the admin can use this\");\r\n        require(tokenContract.transfer(admin, tokenContract.balanceOf(this)), \"Only admin can use this\");\r\n        \r\n        selfdestruct(admin);\r\n    }\r\n}",
  "sourcePath": "E:\\CNTT\\Fetch-Company\\Workdir\\SmartContract\\crypto-currency\\contracts\\DappTokenSale.sol",
  "compiler": {
    "name": "solc",
    "version": "0.4.24+commit.e67f0147.Emscripten.clang"
  },
  "schemaVersion": "2.0.1",
  "updatedAt": "2018-08-09T10:38:37.215Z"
}